:020000040800F2
:100000005019002089010008F1120008E9120008C7
:10001000ED1200084502000805130008000000006A
:10002000000000000000000000000000F9120008BD
:100030004902000800000000F5120008FD12000847
:10004000A3010008A3010008A3010008A301000800
:10005000A3010008A3010008A3010008A3010008F0
:10006000A3010008A3010008A3010008A3010008E0
:10007000A3010008A3010008A3010008A3010008D0
:10008000A3010008A3010008A3010008A3010008C0
:10009000A3010008A3010008A3010008A3010008B0
:1000A000A3010008A3010008A3010008A3010008A0
:1000B000A3010008A3010008A3010008A301000890
:1000C000A3010008A3010008A3010008A301000880
:1000D000A3010008A3010008A3010008A301000870
:1000E000A3010008A3010008A301000800F002F822
:1000F00000F03AF80AA090E8000C82448344AAF188
:100100000107DA4501D100F02FF8AFF2090EBAE885
:100110000F0013F0010F18BFFB1A43F0010318473B
:100120005815000078150000103A24BF78C878C12F
:10013000FAD8520724BF30C830C144BF04680C60ED
:10014000704700000023002400250026103A28BF35
:1001500078C1FBD8520728BF30C148BF0B60704739
:100160001FB51FBD10B510BD00F031F81146FFF7E7
:10017000F7FF01F0C9F800F04FF803B4FFF7F2FF02
:1001800003BC00F057F800000948804709480047C1
:10019000FEE7FEE7FEE7FEE7FEE7FEE7FEE7FEE737
:1001A000FEE7FEE704480549054A064B7047000094
:1001B00001130008ED000008500100205019002034
:1001C000500900205009002070477047704775465D
:1001D00000F02CF8AE4605006946534620F00700B3
:1001E000854618B020B5FFF7DDFFBDE820404FF091
:1001F00000064FF000074FF000084FF0000BAC4630
:10020000ACE8C009ACE8C009ACE8C009ACE8C0097A
:1002100021F007018D46704710B50446AFF300800A
:100220002046BDE81040FFF7A8BF00000048704717
:100230001000002001491820ABBEFEE72600020096
:1002400070470000FEE700007047000010B581B065
:100250000022009290F82420012A03D102210846AE
:1002600001B010BD4B680122062B80F8242015D860
:10027000026803EB8303A3F1050E1F23D2F834C0F9
:1002800003FA0EF40B682CEA040C03FA0EF444EAA9
:100290000C045463092B17D937E000BF02680C2BFC
:1002A00020D803EB8303A3F123041F23D2F830C02B
:1002B00003FA04FE0B682CEA0E0C03FA04F444EA79
:1002C0000C041463092B20D8D2F810C003EB4303AD
:1002D000072489689C402CEA040499402143116159
:1002E000002136E003EB8303A3F141041F23D2F87E
:1002F0002CC003FA04FE0B682CEA0E0C03FA04F47B
:1003000044EA0C04D462092BDED903EB4304D2F88F
:100310000CC0A4F11E0E0724896804FA0EF42CEA1E
:10032000040401FA0EF1214323F00104102CD160E2
:100330000ED142F20841C4F20101A1F10804A24227
:100340000ED0816A41F020018162012101E000BFED
:100350000021002280F82420084601B010BD00BF13
:100360000A68120230D40A68102B42F400020A60B4
:100370002CD140F20801C2F2000109684DF68362F7
:10038000C4F21B32A1FB0212910C01EB8101490066
:1003900000910099E1B10099013900910099C9B12A
:1003A0000099013900910099B1B10099013900918A
:1003B000009999B1009901390091009900294FF0F5
:1003C0000001E8D1C5E700BF0021C2E70021C0E776
:1003D0000021BEE70021BCE70021BAE70021B8E711
:1003E000B0B5002800F0A8800446806A20B12168DA
:1003F0008868C0070BD114E00020E06284F8240074
:10040000204600F09BF821688868C00709D08868FA
:1004100020F00100886000F0D3F921688A68D207D3
:1004200026D1A06AC0063AD4A06A41F202129043D3
:100430000230A062E069D4E9013240EA030C531EA5
:10044000B3FA83F35D091346B2F5807F18BF2B0220
:10045000207D257B01284CEA450030D135B3A56AC3
:1004600045F02005A562E56A45F00105E56226E054
:10047000054602E08868C007D3D000F0A1F9401B10
:1004800021680328F6D38868C007F3D0A06A40F03B
:100490001000A062E06A40F00100E062A06AA06A79
:1004A00040F01000A0620120B0BD00BFD4F818C019
:1004B0004EF60005CFF6FF7505EB4C352B434D6826
:1004C000B2F5807F25F4694543EA05034B608B68EC
:1004D0004FF2FD75CFF6E17503EA050343EA000329
:1004E0008B6001D0012A07D122690023CFF6F07377
:1004F00003EB025201E000BF0022CB6A23F4700339
:100500001A43CA62896840F6FE62CFF61F72114034
:10051000814207D10020E062A16A012262F3010159
:10052000A162B0BDA06A40F0100020F00200A062FD
:10053000E06A40F00100E0620120B0BD80B586B005
:10054000014640F60000C4F20100096800F5E052DF
:1005500091424FF00001CDE9041101D006B080BDF9
:1005600041F21801C4F202010A6842F400720A6002
:100570000A6802F400720192019A0A6842F00402C9
:100580000A60096801F004010191019901210291B9
:100590000321039102A900F003F806B080BD00001A
:1005A0002DE9F04F82B041F20042C4F201020E6820
:1005B0000423904208BF0323002E009300F0F6802E
:1005C00040F2004C4FF6FF7E0022C4F2010C0124E1
:1005D000C1F2100E4FF0000A4FF0000947E000BFD3
:1005E000012502F00C040F27A7402BEA070705FAA4
:1005F00004F43C4343F82640D1F804B040F20C45E3
:100600005FEACB23DCF8083054BF23EA080343EA4F
:100610000803C4F20105CCF808302B685FEA8B248C
:1006200054BF23EA080343EA08032B605FEA8B34D4
:10063000DCF8043054BF23EA080343EA08035FEA06
:10064000CB34CCF80430DCF800304FF0010454BF58
:1006500023EA080343EA0803CCF800300E680AF1E5
:10066000010A36FA0AF302F1040200F09F8004FA4C
:100670000AF816EA080FF1D04B68734512DC122B0A
:1006800056D8DFE803F0350B4549555555555555B6
:10069000555555555555554D510000BFD1F80C9045
:1006A00046E000BF4FF6FF75C1F22105AB420FDCFB
:1006B0000025C1F21105AB421AD00025C1F2120586
:1006C000AB4215D00025C1F22105AB4210D02FE07E
:1006D0000025C1F22205AB420AD00025C1F2310546
:1006E000AB4205D00025C1F23205AB4220D100BF9C
:1006F0008B684BB1012B14BFC0F81480C0F8108078
:100700004FF0080914E000BF4FF0040910E000BFEB
:10071000CB6803F108090BE04FF0000908E000BFC7
:10072000CB6803F1040903E0CB6803F10C0900BFB7
:1007300013460546BAF1080F24BF203B04352E6846
:100740000F279F40BE4309FA03F333432B60CB7955
:10075000DB067FF583AF41F21804C4F2020423687C
:100760004FEA9A0643F001032360236840F6000431
:1007700003F001030193019BACF57E7353F826B09F
:10078000C4F20104A0420FD040F60044C4F20104B8
:10079000A0423FF425AF41F20004C4F20104009DE1
:1007A000A04208BF02251CE700251AE702B0BDE8F9
:1007B000F08F0000002A08BF0904016170470000A3
:1007C00040F24C10C2F200000068704770B5B8B338
:1007D000044690F83D0028B9002084F83C002046EB
:1007E00000F0B0F8242084F83D002068016821F072
:1007F00001010160016841F400410160016821F4D8
:100800000041016000F0DAFA48F28041C0F21E01B6
:1008100040F60013D4F804E088424FF00001C0F223
:100820003D0348F2A16C4FF0000238BF012198420D
:10083000C0F2010C38BF0122E64538BF0A460AB1B2
:10084000012070BD4DF68361C4F21B31A0FB011283
:100850002168950C4B684FF4967623F03F0343EAEA
:100860009243754344F6D3564B60C1F262060B6A5D
:10087000A5FB0656B50923F03F03E64538BF950CA6
:100880006A1C1A430A62CA6948F2A0664CF6FF73F2
:10089000C0F20106B64522EA03020BD801384FEA3E
:1008A0004E03B0FBF3F001306FF31F30042898BF04
:1008B00004201EE0A368013863B119230EFB03F383
:1008C000B0FBF3F001306FF31F3078B100F58040DA
:1008D00008E000BF0EEB4E03B0FBF3F001306FF306
:1008E0001F3028B100F5004003E000BF012000E008
:1008F00001201043C8610868D4E9072320F0C00034
:10090000104318430860886848F2FF3204F10C066F
:1009100090434CCE18431043A5698860C86820F006
:10092000FF0030432843C860086840F001000860B9
:1009300000202021206484F83D10206384F83E00CC
:1009400070BD000010B586B045F200410068C4F2E9
:10095000000100228842049202D006B010BD00BF00
:1009600041F21804C4F20204206840F0080020603C
:10097000206800F0080001900198C0200290122029
:1009800003900320059001F5384002A9FFF708FE07
:10099000606840F400106060606800F4001001902E
:1009A000019806B010BD000040F2000040F24C116A
:1009B000C2F20000C2F2000100780A681044086028
:1009C0007047000080B542F20000C4F202000168E6
:1009D00041F010010160032000F07AF80F2000F0D0
:1009E00005F800F027F8002080BD000070B540F247
:1009F0000006C2F2000640F208013278C2F200019D
:100A00004FF47A730968B3FBF2F20446B1FBF2F1DA
:100A1000084600F053FC0F2C4FF0010508D838B9F8
:100A20004FF0FF3021460022002500F025F87460C9
:100A3000284670BD82B041F21800C4F2020001687D
:100A4000022241F001010160016801F00101019100
:100A50000199416841F080514160406800F0805048
:100A6000009000980420C4F20100016862F31A614A
:100A7000016002B07047000010B54EF60C5CCEF27B
:100A8000000CDCF80030C3F3022E8EF00704042CB7
:100A900028BF0424BEF103034FF0FF3E0EFA04F416
:100AA00038BF0023A14399400EFA03F39A43114340
:100AB00000F00F02043A624409010C3200F1604375
:100AC000B0F1FF3FC8BF03F56442117010BD0000D4
:100AD0004EF60C51CEF200010A684FF6FF031A40A1
:100AE00060F30A2242F0806040F0FD7008607047B9
:100AF0002DE9F04182B00446007841F21C06C0079F
:100B0000C4F202064AD0306810F0805808D130682C
:100B100040F080503060306800F0805001900198C3
:100B200047F20007C4F200073868C00512D43868DD
:100B300040F480703860FFF743FE05463868C00512
:100B400008D4FFF73DFE401B6428F7D9032002B00C
:100B5000BDE8F081706810F4407012D0616801F453
:100B6000407188420DD0706840F24042C4F2422287
:100B7000012320F4407113600023C00713607160EB
:100B80002AD17068616820F440700843B8F1000F02
:100B9000706003D1306820F0805030602068810799
:100BA00007D556F8181CA26821F44041114346F8B5
:100BB000181CC00604D4002002B0BDE8F08100BFBC
:100BC00056F8180CE16820F48000084346F8180C29
:100BD000002002B0BDE8F081FFF7F2FD054641F2CA
:100BE000883700BF70688007CBD4FFF7E9FD401B52
:100BF000B8424FF00300F5D9EBE700002DE9F043D0
:100C000081B0002800F0858042F20008C4F202089A
:100C10000446D8F800000D4600F0070088420CD2C8
:100C2000D8F8000020F007002843C8F80000D8F8E2
:100C3000000000F00700A8426BD1206841F20409CF
:100C40008107C4F2020917D5410705D5D9F800106C
:100C500041F4E061C9F80010010705D5D9F800108A
:100C600041F46051C9F80010D9F80010A26821F0D1
:100C7000F0011143C9F80010C00741D1D8F80000B5
:100C800000F00700A8420CD9D8F8000020F00700B7
:100C90002843C8F80000D8F8000000F00700A84278
:100CA00037D12068410707D5D9F80010E26821F450
:100CB000E0611143C9F80010000708D5D9F8000019
:100CC000216920F4605040EAC100C9F80000D9F859
:100CD000002002F00C00082841F20020C0F27A0047
:100CE00050D141F26663C2F38341C0F60003595C00
:100CF000D2033BD440F60010C0F23D00484341E02F
:100D0000606802280AD001282AD159F8041C8903F6
:100D100008D4012001B0BDE8F08300BF59F8041CDD
:100D20008901F6D5D9F8001021F003010843C9F86C
:100D30000000FFF745FD064641F28837D9F800006C
:100D4000616800F00C00B0EB810F97D0FFF738FD21
:100D5000801BB842F2D9032001B0BDE8F08300BF88
:100D600059F8041C8907D4D5DCE700BFD9F8002066
:100D700041F26463C2F34042C0F600039A5C484308
:100D8000B0FBF2F0D9F8001041F24C62C1F303114C
:100D9000C0F60002515C40F2080220FA01F140F274
:100DA0000400C2F200000068C2F200021160FFF706
:100DB0001DFE002001B0BDE8F083000040F20800F5
:100DC00041F20401C2F20000C4F2020100680968A5
:100DD00041F25C62C1F30221C0F60002515CC840DE
:100DE000704700002DE9F04182B0002868D0044629
:100DF000007841F20006C007C4F2020625D07068F0
:100E000000F00C0004281BD0706800F00C000828CB
:100E100002D17068C00313D46068002800F06881B4
:100E2000B0F5A02F00F07C81B0F5803F00F07C8110
:100E3000306820F480303060306820F4802076E123
:100E40003068800301D56068D0B32078800718D55A
:100E5000706810F00C0F07D0706800F00C000828C4
:100E60006ED17068C0036BD43068800702D52069EA
:100E7000012825D13068616920F0F80040EAC100FE
:100E80003060207800071FD42078400732D4E5690D
:100E900095B1706800F00C00082840F08F80012D9B
:100EA0000ED07068216A00F480328A4208D1616AEB
:100EB00000F47010884203D1002002B0BDE8F08138
:100EC000012002B0BDE8F081A069002862D00020B6
:100ED000C4F242200121C0F88014FFF771FC0546DE
:100EE000706A800700F18C80FFF76AFC401B0228C3
:100EF000F6D92AE1F06910F0805808D1F06940F085
:100F00008050F061F06900F080500090009847F246
:100F10000007C4F200073868C00529D4386840F4D7
:100F200080703860FFF74CFC054600BF3868C0058C
:100F30001ED4FFF745FC401B6428F7D905E100BF2C
:100F40002069002840F20000C4F2422000F08280B4
:100F500001210160FFF734FC054600BF30688007BF
:100F60003FF588AFFFF72CFC401B0228F6D9ECE0D8
:100F7000E068002800F08080052800F097800128B4
:100F800000F09880306A20F001003062306A20F072
:100F9000040092E00020C4F242200021C0F8801436
:100FA000FFF70EFC054600BF706A80077FF56CAF47
:100FB000FFF706FC401B0228F6D9C6E00027C4F262
:100FC000422700203866FFF7FBFB022D05460BD1B8
:100FD0003068800140F1BE80FFF7F2FB401B022821
:100FE0004FF00300F4D968E7306880017FF564AF03
:100FF000FFF7E6FB401B02284FF00300F4D95CE743
:1010000040F20800C2F20000006844F6D351C1F279
:101010006201A0FB0101480A019000BF00BF0198D6
:10102000411E002801913FF42FAF00BF0198411EDF
:10103000002801913FF428AF00BF0198411E00280D
:1010400001913FF421AF00BF0198411E002801919A
:10105000E4D119E700210160FFF7B2FB054600BFAC
:10106000306880077FF50DAFFFF7AAFB401B022811
:101070004FF00300F4D920E7306A20F0010030621D
:10108000306A20F004003062FFF79AFB054641F217
:10109000883700BF306A800720D5FFF791FB401BDF
:1010A000B8424FF00300F5D907E700BF306A40F0BF
:1010B00004003062306A40F001003062FFF780FBCC
:1010C000054641F2883700BF306A800706D4FFF733
:1010D00077FB401BB842F7D937E000BFB8F1000FEB
:1010E0007FF4D5AEF06920F08050F061CFE600BF0C
:1010F000306820F480303060306820F48020306028
:10110000FFF75EFB054600BF306880037FF59DAEAC
:10111000FFF756FB401B64284FF00300F4D9CCE6E0
:10112000306840F480203060306840F480303060B7
:10113000FFF746FB054600BF306880033FF585AEEC
:10114000FFF73EFB401B6428F6D9032002B0BDE840
:10115000F08100BF206AB0F5803F05D17168A268B8
:1011600021F40031114371607168626A21F47411D5
:1011700010430843706001203866FFF721FB0446E6
:10118000306880013FF598AEFFF71AFB001B02287C
:101190004FF00300F4D990E670B538B10446406AC8
:1011A00030B10020206104F1140007E0012070BD7F
:1011B0006068B0F5827F03D004F11C00002101605B
:1011C0000026A66294F8510020B9204684F85060A9
:1011D00000F038F8022084F8510094E8071001F478
:1011E0008271036802F4044223F040030360236920
:1011F00011440CF40062114403F0020263691144CB
:1012000003F00102A369E569114403F4007211447B
:1012100005F03802256A114405F08002A56A1143E1
:1012200005F4005211430160042101EA13414160B9
:10123000C16921F40061C1610120666584F8510033
:10124000304670BD70B586B040F60004C4F20104AB
:10125000006804F5205100268842049602D006B0AA
:1012600070BD00BF41F21800C4F20200016802AD77
:1012700041F480510160016801F4805101910199AC
:10128000016841F0040101600068294600F0040093
:1012900001900198A0200290022003900320059065
:1012A0002046FFF77DF94020CDE902062046294679
:1012B0000496FFF775F906B070BD0000411E0020CE
:1012C000B0EB116F1CBF012070474EF21002CEF23E
:1012D000000251604EF62351CEF20001F0230B7054
:1012E0000721906011607047FEE70000FEE70000F4
:1012F000FEE700007047000070470000FFF754BB96
:1013000070470000FEE7000094B0FFF75BFB00248D
:101310000120CDE90F44CDE90D440E9010200F902F
:101320004FF46010022513900AA8CDE90B440494F1
:10133000CDE902440A95CDE91154FFF753FD28B1D8
:10134000EFF3108072B600BFFEE700BF0F20CDE9BB
:1013500005054FF48060CDE9080405A80221079433
:10136000FFF74CFC20B1EFF3108072B6FEE700BF30
:101370004FF002094FF4404A01A8CDF80490CDF88F
:101380000CA0FFF7B5FB28B1EFF3108072B600BFD9
:10139000FEE700BF41F21800C4F20200016840F607
:1013A000000841F0100101600168C4F2010801F079
:1013B00010010A910A99016808F5006541F00401DD
:1013C00001600168002201F004010A910A99016894
:1013D0004FF4005741F00801016000684FF40051DC
:1013E00000F008000A900A9828460024FFF7E2F966
:1013F00008F5806630464FF440410022FFF7DAF9E5
:1014000040464FF4F8510022FFF7D4F90A970AAF8B
:101410004FF0010B28463946CDE90BB4CDF8349096
:10142000FFF7BEF830463946CDE90AABCDE90C49A5
:10143000FFF7B6F84FF4F850CDE90A0B40463946AD
:10144000CDE90C49FFF7ACF840F2A000A8F5344113
:10145000C2F2000048F2A0624FF48043C0F20102E1
:1014600080E81600C0E90343C0E90544C0E9074429
:10147000FFF7ACF920B1EFF3108072B6FEE700BFC2
:1014800040F2700008F5E051C2F200004FF4602213
:1014900004730475C261C0E900148460C0F810B020
:1014A000FEF79EFF20B1EFF3108072B6FEE700BF9B
:1014B00001200B9003200C9040F270000024C2F237
:1014C00000000AA90A94FEF7C1FE28B1EFF31080CC
:1014D00072B600BFFEE700BF40F2F40008F52051ED
:1014E000C2F200004FF482724FF40073082780E8C4
:1014F00016000A21C0E90344C0E90543C761C0E9F9
:101500000844C0E90A41FFF747FE28B1EFF3108015
:1015100072B600BFFEE700BF00F078F800F002F8F6
:10152000FEE7000081B041F21801C4F202010A682E
:1015300042F2084042F40072C4F201000A600168FD
:1015400041F001010160816821F00701816081683B
:1015500041F003018160416A21F470014162002180
:10156000C162016841F0080101600168090709D5FD
:101570000168090744BF01685FEA017102D501688B
:101580000907F2D4016841F00401016001684907CC
:1015900009D50168490744BF01685FEA417102D576
:1015A00001684907F2D4016821F002010160016875
:1015B00021F4006101604EF20010CEF200004FF401
:1015C0008021016000200090009948F2A060C0F2E4
:1015D0000100814218D200BF0099013100910099A9
:1015E000814211D2009901310091009981420BD2C0
:1015F0000099013100910099814205D20099013191
:10160000009100998142E7D301B0704741F21C007C
:10161000C4F20200016841F0010101600C20C4F233
:10162000000040F27F21C16100218161016841F029
:1016300001010160416821F0010141604EF200109A
:10164000CEF200004FF080510160704700000000B2
:101650000000000001020304060708090000000062
:1016600001020304010202030405060708090A0B2C
:101670000C0D0E0F1010000098160008000000203E
:101680001000000028010008A81600081000002023
:101690004019000044010008010000001000000093
:0816A00000127A0000000000B6
:04000005080000ED02
:00000001FF
